{
  "_format": "hh-sol-artifact-1",
  "contractName": "NFTMarket",
  "sourceName": "contracts/HUB_marketplace.sol",
  "abi": [
    {
      "inputs": [],
      "stateMutability": "nonpayable",
      "type": "constructor"
    },
    {
      "anonymous": false,
      "inputs": [
        {
          "indexed": true,
          "internalType": "uint256",
          "name": "itemId",
          "type": "uint256"
        },
        {
          "indexed": true,
          "internalType": "address",
          "name": "nftContract",
          "type": "address"
        },
        {
          "indexed": true,
          "internalType": "uint256",
          "name": "tokenId",
          "type": "uint256"
        },
        {
          "indexed": false,
          "internalType": "address",
          "name": "seller",
          "type": "address"
        },
        {
          "indexed": false,
          "internalType": "address",
          "name": "owner",
          "type": "address"
        },
        {
          "indexed": false,
          "internalType": "uint256",
          "name": "price",
          "type": "uint256"
        }
      ],
      "name": "MarketItemCreated",
      "type": "event"
    },
    {
      "inputs": [
        {
          "internalType": "address",
          "name": "nftContract",
          "type": "address"
        },
        {
          "internalType": "uint256",
          "name": "tokenId",
          "type": "uint256"
        },
        {
          "internalType": "uint256",
          "name": "price",
          "type": "uint256"
        }
      ],
      "name": "createMarketItem",
      "outputs": [],
      "stateMutability": "payable",
      "type": "function"
    },
    {
      "inputs": [
        {
          "internalType": "address",
          "name": "nftContract",
          "type": "address"
        },
        {
          "internalType": "uint256",
          "name": "itemId",
          "type": "uint256"
        }
      ],
      "name": "createMarketSale",
      "outputs": [],
      "stateMutability": "payable",
      "type": "function"
    },
    {
      "inputs": [
        {
          "internalType": "uint256",
          "name": "itemId",
          "type": "uint256"
        }
      ],
      "name": "fetchMarketItem",
      "outputs": [
        {
          "components": [
            {
              "internalType": "uint256",
              "name": "itemId",
              "type": "uint256"
            },
            {
              "internalType": "address",
              "name": "nftContract",
              "type": "address"
            },
            {
              "internalType": "uint256",
              "name": "tokenId",
              "type": "uint256"
            },
            {
              "internalType": "address payable",
              "name": "seller",
              "type": "address"
            },
            {
              "internalType": "address payable",
              "name": "owner",
              "type": "address"
            },
            {
              "internalType": "uint256",
              "name": "price",
              "type": "uint256"
            }
          ],
          "internalType": "struct NFTMarket.MarketItem",
          "name": "",
          "type": "tuple"
        }
      ],
      "stateMutability": "view",
      "type": "function"
    },
    {
      "inputs": [],
      "name": "fetchMarketItems",
      "outputs": [
        {
          "components": [
            {
              "internalType": "uint256",
              "name": "itemId",
              "type": "uint256"
            },
            {
              "internalType": "address",
              "name": "nftContract",
              "type": "address"
            },
            {
              "internalType": "uint256",
              "name": "tokenId",
              "type": "uint256"
            },
            {
              "internalType": "address payable",
              "name": "seller",
              "type": "address"
            },
            {
              "internalType": "address payable",
              "name": "owner",
              "type": "address"
            },
            {
              "internalType": "uint256",
              "name": "price",
              "type": "uint256"
            }
          ],
          "internalType": "struct NFTMarket.MarketItem[]",
          "name": "",
          "type": "tuple[]"
        }
      ],
      "stateMutability": "view",
      "type": "function"
    },
    {
      "inputs": [],
      "name": "fetchMyNFTs",
      "outputs": [
        {
          "components": [
            {
              "internalType": "uint256",
              "name": "itemId",
              "type": "uint256"
            },
            {
              "internalType": "address",
              "name": "nftContract",
              "type": "address"
            },
            {
              "internalType": "uint256",
              "name": "tokenId",
              "type": "uint256"
            },
            {
              "internalType": "address payable",
              "name": "seller",
              "type": "address"
            },
            {
              "internalType": "address payable",
              "name": "owner",
              "type": "address"
            },
            {
              "internalType": "uint256",
              "name": "price",
              "type": "uint256"
            }
          ],
          "internalType": "struct NFTMarket.MarketItem[]",
          "name": "",
          "type": "tuple[]"
        }
      ],
      "stateMutability": "view",
      "type": "function"
    },
    {
      "inputs": [
        {
          "internalType": "uint256",
          "name": "marketItemId",
          "type": "uint256"
        }
      ],
      "name": "getMarketItem",
      "outputs": [
        {
          "components": [
            {
              "internalType": "uint256",
              "name": "itemId",
              "type": "uint256"
            },
            {
              "internalType": "address",
              "name": "nftContract",
              "type": "address"
            },
            {
              "internalType": "uint256",
              "name": "tokenId",
              "type": "uint256"
            },
            {
              "internalType": "address payable",
              "name": "seller",
              "type": "address"
            },
            {
              "internalType": "address payable",
              "name": "owner",
              "type": "address"
            },
            {
              "internalType": "uint256",
              "name": "price",
              "type": "uint256"
            }
          ],
          "internalType": "struct NFTMarket.MarketItem",
          "name": "",
          "type": "tuple"
        }
      ],
      "stateMutability": "view",
      "type": "function"
    }
  ],
  "bytecode": "0x6080604052662386f26fc1000060045534801561001b57600080fd5b50600160008190555033600360006101000a81548173ffffffffffffffffffffffffffffffffffffffff021916908373ffffffffffffffffffffffffffffffffffffffff1602179055506117d9806100746000396000f3fe6080604052600436106100555760003560e01c80630f08efe01461005a578063202e3740146100855780632a45b250146100b057806358eb2df5146100ed578063c23b139e14610109578063c7be7a4914610125575b600080fd5b34801561006657600080fd5b5061006f610162565b60405161007c919061151e565b60405180910390f35b34801561009157600080fd5b5061009a610473565b6040516100a7919061151e565b60405180910390f35b3480156100bc57600080fd5b506100d760048036038101906100d291906111bb565b610808565b6040516100e491906115c0565b60405180910390f35b6101076004803603810190610102919061116c565b61095b565b005b610123600480360381019061011e9190611130565b610cfe565b005b34801561013157600080fd5b5061014c600480360381019061014791906111bb565b610f1d565b60405161015991906115c0565b60405180910390f35b60606000610170600161106a565b9050600061017e600261106a565b610188600161106a565b610192919061167b565b90506000808267ffffffffffffffff8111156101d7577f4e487b7100000000000000000000000000000000000000000000000000000000600052604160045260246000fd5b60405190808252806020026020018201604052801561021057816020015b6101fd61108e565b8152602001906001900390816101f55790505b50905060005b8481101561046857600073ffffffffffffffffffffffffffffffffffffffff16600560006001846102479190611625565b815260200190815260200160002060040160009054906101000a900473ffffffffffffffffffffffffffffffffffffffff1673ffffffffffffffffffffffffffffffffffffffff161415610455576000600560006001846102a89190611625565b81526020019081526020016000206000015490506000600560008381526020019081526020016000209050806040518060c0016040529081600082015481526020016001820160009054906101000a900473ffffffffffffffffffffffffffffffffffffffff1673ffffffffffffffffffffffffffffffffffffffff1673ffffffffffffffffffffffffffffffffffffffff168152602001600282015481526020016003820160009054906101000a900473ffffffffffffffffffffffffffffffffffffffff1673ffffffffffffffffffffffffffffffffffffffff1673ffffffffffffffffffffffffffffffffffffffff1681526020016004820160009054906101000a900473ffffffffffffffffffffffffffffffffffffffff1673ffffffffffffffffffffffffffffffffffffffff1673ffffffffffffffffffffffffffffffffffffffff168152602001600582015481525050848681518110610438577f4e487b7100000000000000000000000000000000000000000000000000000000600052603260045260246000fd5b60200260200101819052506001856104509190611625565b945050505b8080610460906116fd565b915050610216565b508094505050505090565b60606000610481600161106a565b905060008060005b8381101561052a573373ffffffffffffffffffffffffffffffffffffffff16600560006001846104b99190611625565b815260200190815260200160002060040160009054906101000a900473ffffffffffffffffffffffffffffffffffffffff1673ffffffffffffffffffffffffffffffffffffffff161415610517576001836105149190611625565b92505b8080610522906116fd565b915050610489565b5060008267ffffffffffffffff81111561056d577f4e487b7100000000000000000000000000000000000000000000000000000000600052604160045260246000fd5b6040519080825280602002602001820160405280156105a657816020015b61059361108e565b81526020019060019003908161058b5790505b50905060005b848110156107fd573373ffffffffffffffffffffffffffffffffffffffff16600560006001846105dc9190611625565b815260200190815260200160002060040160009054906101000a900473ffffffffffffffffffffffffffffffffffffffff1673ffffffffffffffffffffffffffffffffffffffff1614156107ea5760006005600060018461063d9190611625565b81526020019081526020016000206000015490506000600560008381526020019081526020016000209050806040518060c0016040529081600082015481526020016001820160009054906101000a900473ffffffffffffffffffffffffffffffffffffffff1673ffffffffffffffffffffffffffffffffffffffff1673ffffffffffffffffffffffffffffffffffffffff168152602001600282015481526020016003820160009054906101000a900473ffffffffffffffffffffffffffffffffffffffff1673ffffffffffffffffffffffffffffffffffffffff1673ffffffffffffffffffffffffffffffffffffffff1681526020016004820160009054906101000a900473ffffffffffffffffffffffffffffffffffffffff1673ffffffffffffffffffffffffffffffffffffffff1673ffffffffffffffffffffffffffffffffffffffff1681526020016005820154815250508486815181106107cd577f4e487b7100000000000000000000000000000000000000000000000000000000600052603260045260246000fd5b60200260200101819052506001856107e59190611625565b945050505b80806107f5906116fd565b9150506105ac565b508094505050505090565b61081061108e565b6000600560008481526020019081526020016000206040518060c0016040529081600082015481526020016001820160009054906101000a900473ffffffffffffffffffffffffffffffffffffffff1673ffffffffffffffffffffffffffffffffffffffff1673ffffffffffffffffffffffffffffffffffffffff168152602001600282015481526020016003820160009054906101000a900473ffffffffffffffffffffffffffffffffffffffff1673ffffffffffffffffffffffffffffffffffffffff1673ffffffffffffffffffffffffffffffffffffffff1681526020016004820160009054906101000a900473ffffffffffffffffffffffffffffffffffffffff1673ffffffffffffffffffffffffffffffffffffffff1673ffffffffffffffffffffffffffffffffffffffff168152602001600582015481525050905080915050919050565b600260005414156109a1576040517f08c379a000000000000000000000000000000000000000000000000000000000815260040161099890611580565b60405180910390fd5b6002600081905550600081116109ec576040517f08c379a00000000000000000000000000000000000000000000000000000000081526004016109e3906115a0565b60405180910390fd5b6004543414610a30576040517f08c379a0000000000000000000000000000000000000000000000000000000008152600401610a2790611560565b60405180910390fd5b610a3a6001611078565b6000610a46600161106a565b90506040518060c001604052808281526020018573ffffffffffffffffffffffffffffffffffffffff1681526020018481526020013373ffffffffffffffffffffffffffffffffffffffff168152602001600073ffffffffffffffffffffffffffffffffffffffff16815260200183815250600560008381526020019081526020016000206000820151816000015560208201518160010160006101000a81548173ffffffffffffffffffffffffffffffffffffffff021916908373ffffffffffffffffffffffffffffffffffffffff1602179055506040820151816002015560608201518160030160006101000a81548173ffffffffffffffffffffffffffffffffffffffff021916908373ffffffffffffffffffffffffffffffffffffffff16021790555060808201518160040160006101000a81548173ffffffffffffffffffffffffffffffffffffffff021916908373ffffffffffffffffffffffffffffffffffffffff16021790555060a082015181600501559050508373ffffffffffffffffffffffffffffffffffffffff166323b872dd3330866040518463ffffffff1660e01b8152600401610bfe939291906114e7565b600060405180830381600087803b158015610c1857600080fd5b505af1158015610c2c573d6000803e3d6000fd5b50505050828473ffffffffffffffffffffffffffffffffffffffff16827f2ad024d53a0dc50c130967f8d4941927ee087ea31394cebb2b9599d3706c9c0033600087604051610c7d939291906114e7565b60405180910390a4600360009054906101000a900473ffffffffffffffffffffffffffffffffffffffff1673ffffffffffffffffffffffffffffffffffffffff166108fc6004549081150290604051600060405180830381858888f19350505050158015610cef573d6000803e3d6000fd5b50506001600081905550505050565b60026000541415610d44576040517f08c379a0000000000000000000000000000000000000000000000000000000008152600401610d3b90611580565b60405180910390fd5b6002600081905550600060056000838152602001908152602001600020600501549050600060056000848152602001908152602001600020600201549050813414610dc4576040517f08c379a0000000000000000000000000000000000000000000000000000000008152600401610dbb90611540565b60405180910390fd5b6005600084815260200190815260200160002060030160009054906101000a900473ffffffffffffffffffffffffffffffffffffffff1673ffffffffffffffffffffffffffffffffffffffff166108fc349081150290604051600060405180830381858888f19350505050158015610e40573d6000803e3d6000fd5b508373ffffffffffffffffffffffffffffffffffffffff166323b872dd3033846040518463ffffffff1660e01b8152600401610e7e939291906114e7565b600060405180830381600087803b158015610e9857600080fd5b505af1158015610eac573d6000803e3d6000fd5b50505050336005600085815260200190815260200160002060040160006101000a81548173ffffffffffffffffffffffffffffffffffffffff021916908373ffffffffffffffffffffffffffffffffffffffff160217905550610f0f6002611078565b505060016000819055505050565b610f2561108e565b600560008381526020019081526020016000206040518060c0016040529081600082015481526020016001820160009054906101000a900473ffffffffffffffffffffffffffffffffffffffff1673ffffffffffffffffffffffffffffffffffffffff1673ffffffffffffffffffffffffffffffffffffffff168152602001600282015481526020016003820160009054906101000a900473ffffffffffffffffffffffffffffffffffffffff1673ffffffffffffffffffffffffffffffffffffffff1673ffffffffffffffffffffffffffffffffffffffff1681526020016004820160009054906101000a900473ffffffffffffffffffffffffffffffffffffffff1673ffffffffffffffffffffffffffffffffffffffff1673ffffffffffffffffffffffffffffffffffffffff1681526020016005820154815250509050919050565b600081600001549050919050565b6001816000016000828254019250508190555050565b6040518060c0016040528060008152602001600073ffffffffffffffffffffffffffffffffffffffff16815260200160008152602001600073ffffffffffffffffffffffffffffffffffffffff168152602001600073ffffffffffffffffffffffffffffffffffffffff168152602001600081525090565b60008135905061111581611775565b92915050565b60008135905061112a8161178c565b92915050565b6000806040838503121561114357600080fd5b600061115185828601611106565b92505060206111628582860161111b565b9150509250929050565b60008060006060848603121561118157600080fd5b600061118f86828701611106565b93505060206111a08682870161111b565b92505060406111b18682870161111b565b9150509250925092565b6000602082840312156111cd57600080fd5b60006111db8482850161111b565b91505092915050565b60006111f083836113d3565b60c08301905092915050565b611205816116c1565b82525050565b611214816116af565b82525050565b611223816116af565b82525050565b6000611234826115eb565b61123e8185611603565b9350611249836115db565b8060005b8381101561127a57815161126188826111e4565b975061126c836115f6565b92505060018101905061124d565b5085935050505092915050565b6000611294604083611614565b91507f506c65617365207375626d6974207468652061736b696e67207072696365206960008301527f6e206f7264657220746f20636f6d706c657465207468652070757263686173656020830152604082019050919050565b60006112fa602483611614565b91507f5072696365206d75737420626520657175616c20746f206c697374696e67207060008301527f72696365000000000000000000000000000000000000000000000000000000006020830152604082019050919050565b6000611360601f83611614565b91507f5265656e7472616e637947756172643a207265656e7472616e742063616c6c006000830152602082019050919050565b60006113a0601c83611614565b91507f5072696365206d757374206265206174206c65617374203120776569000000006000830152602082019050919050565b60c0820160008201516113e960008501826114c9565b5060208201516113fc602085018261120b565b50604082015161140f60408501826114c9565b50606082015161142260608501826111fc565b50608082015161143560808501826111fc565b5060a082015161144860a08501826114c9565b50505050565b60c08201600082015161146460008501826114c9565b506020820151611477602085018261120b565b50604082015161148a60408501826114c9565b50606082015161149d60608501826111fc565b5060808201516114b060808501826111fc565b5060a08201516114c360a08501826114c9565b50505050565b6114d2816116f3565b82525050565b6114e1816116f3565b82525050565b60006060820190506114fc600083018661121a565b611509602083018561121a565b61151660408301846114d8565b949350505050565b600060208201905081810360008301526115388184611229565b905092915050565b6000602082019050818103600083015261155981611287565b9050919050565b60006020820190508181036000830152611579816112ed565b9050919050565b6000602082019050818103600083015261159981611353565b9050919050565b600060208201905081810360008301526115b981611393565b9050919050565b600060c0820190506115d5600083018461144e565b92915050565b6000819050602082019050919050565b600081519050919050565b6000602082019050919050565b600082825260208201905092915050565b600082825260208201905092915050565b6000611630826116f3565b915061163b836116f3565b9250827fffffffffffffffffffffffffffffffffffffffffffffffffffffffffffffffff038211156116705761166f611746565b5b828201905092915050565b6000611686826116f3565b9150611691836116f3565b9250828210156116a4576116a3611746565b5b828203905092915050565b60006116ba826116d3565b9050919050565b60006116cc826116d3565b9050919050565b600073ffffffffffffffffffffffffffffffffffffffff82169050919050565b6000819050919050565b6000611708826116f3565b91507fffffffffffffffffffffffffffffffffffffffffffffffffffffffffffffffff82141561173b5761173a611746565b5b600182019050919050565b7f4e487b7100000000000000000000000000000000000000000000000000000000600052601160045260246000fd5b61177e816116af565b811461178957600080fd5b50565b611795816116f3565b81146117a057600080fd5b5056fea264697066735822122044e20b7d7f990ee5b0a6697a6a72c2821b834fa001ec22d815ea8960f675921064736f6c63430008000033",
  "linkReferences": {},
  "deployedLinkReferences": {}
}