{
  "_format": "hh-sol-artifact-1",
  "contractName": "HUB",
  "sourceName": "contracts/HUB.sol",
  "abi": [
    {
      "inputs": [
        {
          "internalType": "address",
          "name": "marketplaceAddress",
          "type": "address"
        }
      ],
      "stateMutability": "nonpayable",
      "type": "constructor"
    },
    {
      "anonymous": false,
      "inputs": [
        {
          "indexed": true,
          "internalType": "address",
          "name": "owner",
          "type": "address"
        },
        {
          "indexed": true,
          "internalType": "address",
          "name": "approved",
          "type": "address"
        },
        {
          "indexed": true,
          "internalType": "uint256",
          "name": "tokenId",
          "type": "uint256"
        }
      ],
      "name": "Approval",
      "type": "event"
    },
    {
      "anonymous": false,
      "inputs": [
        {
          "indexed": true,
          "internalType": "address",
          "name": "owner",
          "type": "address"
        },
        {
          "indexed": true,
          "internalType": "address",
          "name": "operator",
          "type": "address"
        },
        {
          "indexed": false,
          "internalType": "bool",
          "name": "approved",
          "type": "bool"
        }
      ],
      "name": "ApprovalForAll",
      "type": "event"
    },
    {
      "anonymous": false,
      "inputs": [
        {
          "indexed": true,
          "internalType": "address",
          "name": "previousOwner",
          "type": "address"
        },
        {
          "indexed": true,
          "internalType": "address",
          "name": "newOwner",
          "type": "address"
        }
      ],
      "name": "OwnershipTransferred",
      "type": "event"
    },
    {
      "anonymous": false,
      "inputs": [
        {
          "indexed": true,
          "internalType": "address",
          "name": "from",
          "type": "address"
        },
        {
          "indexed": true,
          "internalType": "address",
          "name": "to",
          "type": "address"
        },
        {
          "indexed": true,
          "internalType": "uint256",
          "name": "tokenId",
          "type": "uint256"
        }
      ],
      "name": "Transfer",
      "type": "event"
    },
    {
      "inputs": [
        {
          "internalType": "address",
          "name": "to",
          "type": "address"
        },
        {
          "internalType": "uint256",
          "name": "tokenId",
          "type": "uint256"
        }
      ],
      "name": "approve",
      "outputs": [],
      "stateMutability": "nonpayable",
      "type": "function"
    },
    {
      "inputs": [
        {
          "internalType": "address",
          "name": "owner",
          "type": "address"
        }
      ],
      "name": "balanceOf",
      "outputs": [
        {
          "internalType": "uint256",
          "name": "",
          "type": "uint256"
        }
      ],
      "stateMutability": "view",
      "type": "function"
    },
    {
      "inputs": [
        {
          "internalType": "string",
          "name": "tokenURI",
          "type": "string"
        }
      ],
      "name": "createToken",
      "outputs": [
        {
          "internalType": "uint256",
          "name": "",
          "type": "uint256"
        }
      ],
      "stateMutability": "nonpayable",
      "type": "function"
    },
    {
      "inputs": [
        {
          "internalType": "uint256",
          "name": "tokenId",
          "type": "uint256"
        }
      ],
      "name": "getApproved",
      "outputs": [
        {
          "internalType": "address",
          "name": "",
          "type": "address"
        }
      ],
      "stateMutability": "view",
      "type": "function"
    },
    {
      "inputs": [
        {
          "internalType": "address",
          "name": "owner",
          "type": "address"
        },
        {
          "internalType": "address",
          "name": "operator",
          "type": "address"
        }
      ],
      "name": "isApprovedForAll",
      "outputs": [
        {
          "internalType": "bool",
          "name": "",
          "type": "bool"
        }
      ],
      "stateMutability": "view",
      "type": "function"
    },
    {
      "inputs": [],
      "name": "name",
      "outputs": [
        {
          "internalType": "string",
          "name": "",
          "type": "string"
        }
      ],
      "stateMutability": "view",
      "type": "function"
    },
    {
      "inputs": [],
      "name": "owner",
      "outputs": [
        {
          "internalType": "address",
          "name": "",
          "type": "address"
        }
      ],
      "stateMutability": "view",
      "type": "function"
    },
    {
      "inputs": [
        {
          "internalType": "uint256",
          "name": "tokenId",
          "type": "uint256"
        }
      ],
      "name": "ownerOf",
      "outputs": [
        {
          "internalType": "address",
          "name": "",
          "type": "address"
        }
      ],
      "stateMutability": "view",
      "type": "function"
    },
    {
      "inputs": [],
      "name": "renounceOwnership",
      "outputs": [],
      "stateMutability": "nonpayable",
      "type": "function"
    },
    {
      "inputs": [
        {
          "internalType": "address",
          "name": "from",
          "type": "address"
        },
        {
          "internalType": "address",
          "name": "to",
          "type": "address"
        },
        {
          "internalType": "uint256",
          "name": "tokenId",
          "type": "uint256"
        }
      ],
      "name": "safeTransferFrom",
      "outputs": [],
      "stateMutability": "nonpayable",
      "type": "function"
    },
    {
      "inputs": [
        {
          "internalType": "address",
          "name": "from",
          "type": "address"
        },
        {
          "internalType": "address",
          "name": "to",
          "type": "address"
        },
        {
          "internalType": "uint256",
          "name": "tokenId",
          "type": "uint256"
        },
        {
          "internalType": "bytes",
          "name": "_data",
          "type": "bytes"
        }
      ],
      "name": "safeTransferFrom",
      "outputs": [],
      "stateMutability": "nonpayable",
      "type": "function"
    },
    {
      "inputs": [
        {
          "internalType": "address",
          "name": "operator",
          "type": "address"
        },
        {
          "internalType": "bool",
          "name": "approved",
          "type": "bool"
        }
      ],
      "name": "setApprovalForAll",
      "outputs": [],
      "stateMutability": "nonpayable",
      "type": "function"
    },
    {
      "inputs": [
        {
          "internalType": "bytes4",
          "name": "interfaceId",
          "type": "bytes4"
        }
      ],
      "name": "supportsInterface",
      "outputs": [
        {
          "internalType": "bool",
          "name": "",
          "type": "bool"
        }
      ],
      "stateMutability": "view",
      "type": "function"
    },
    {
      "inputs": [],
      "name": "symbol",
      "outputs": [
        {
          "internalType": "string",
          "name": "",
          "type": "string"
        }
      ],
      "stateMutability": "view",
      "type": "function"
    },
    {
      "inputs": [
        {
          "internalType": "uint256",
          "name": "tokenId",
          "type": "uint256"
        }
      ],
      "name": "tokenURI",
      "outputs": [
        {
          "internalType": "string",
          "name": "",
          "type": "string"
        }
      ],
      "stateMutability": "view",
      "type": "function"
    },
    {
      "inputs": [
        {
          "internalType": "address",
          "name": "from",
          "type": "address"
        },
        {
          "internalType": "address",
          "name": "to",
          "type": "address"
        },
        {
          "internalType": "uint256",
          "name": "tokenId",
          "type": "uint256"
        }
      ],
      "name": "transferFrom",
      "outputs": [],
      "stateMutability": "nonpayable",
      "type": "function"
    },
    {
      "inputs": [
        {
          "internalType": "address",
          "name": "newOwner",
          "type": "address"
        }
      ],
      "name": "transferOwnership",
      "outputs": [],
      "stateMutability": "nonpayable",
      "type": "function"
    }
  ],
  "bytecode": "0x60806040523480156200001157600080fd5b50604051620031db380380620031db833981810160405281019062000037919062000293565b6040518060400160405280600881526020017f485542544f4b454e0000000000000000000000000000000000000000000000008152506040518060400160405280600381526020017f48554200000000000000000000000000000000000000000000000000000000008152508160009080519060200190620000bb929190620001cc565b508060019080519060200190620000d4929190620001cc565b505050620000f7620000eb620000fe60201b60201c565b6200010660201b60201c565b5062000372565b600033905090565b6000600760009054906101000a900473ffffffffffffffffffffffffffffffffffffffff16905081600760006101000a81548173ffffffffffffffffffffffffffffffffffffffff021916908373ffffffffffffffffffffffffffffffffffffffff1602179055508173ffffffffffffffffffffffffffffffffffffffff168173ffffffffffffffffffffffffffffffffffffffff167f8be0079c531659141344cd1fd0a4f28419497f9722a3daafe3b4186f6b6457e060405160405180910390a35050565b828054620001da90620002f3565b90600052602060002090601f016020900481019282620001fe57600085556200024a565b82601f106200021957805160ff19168380011785556200024a565b828001600101855582156200024a579182015b82811115620002495782518255916020019190600101906200022c565b5b5090506200025991906200025d565b5090565b5b80821115620002785760008160009055506001016200025e565b5090565b6000815190506200028d8162000358565b92915050565b600060208284031215620002a657600080fd5b6000620002b6848285016200027c565b91505092915050565b6000620002cc82620002d3565b9050919050565b600073ffffffffffffffffffffffffffffffffffffffff82169050919050565b600060028204905060018216806200030c57607f821691505b6020821081141562000323576200032262000329565b5b50919050565b7f4e487b7100000000000000000000000000000000000000000000000000000000600052602260045260246000fd5b6200036381620002bf565b81146200036f57600080fd5b50565b612e5980620003826000396000f3fe608060405234801561001057600080fd5b506004361061010b5760003560e01c806370a08231116100a2578063a22cb46511610071578063a22cb465146102b8578063b88d4fde146102d4578063c87b56dd146102f0578063e985e9c514610320578063f2fde38b146103505761010b565b806370a0823114610242578063715018a6146102725780638da5cb5b1461027c57806395d89b411461029a5761010b565b806323b872dd116100de57806323b872dd146101aa57806342842e0e146101c657806345576f94146101e25780636352211e146102125761010b565b806301ffc9a71461011057806306fdde0314610140578063081812fc1461015e578063095ea7b31461018e575b600080fd5b61012a60048036038101906101259190611ec6565b61036c565b6040516101379190612771565b60405180910390f35b61014861044e565b604051610155919061278c565b60405180910390f35b61017860048036038101906101739190611f59565b6104e0565b604051610185919061270a565b60405180910390f35b6101a860048036038101906101a39190611e8a565b610565565b005b6101c460048036038101906101bf9190611d84565b61067d565b005b6101e060048036038101906101db9190611d84565b6106dd565b005b6101fc60048036038101906101f79190611f18565b6106fd565b60405161020991906129ee565b60405180910390f35b61022c60048036038101906102279190611f59565b610761565b604051610239919061270a565b60405180910390f35b61025c60048036038101906102579190611d1f565b610813565b60405161026991906129ee565b60405180910390f35b61027a6108cb565b005b610284610953565b604051610291919061270a565b60405180910390f35b6102a261097d565b6040516102af919061278c565b60405180910390f35b6102d260048036038101906102cd9190611e4e565b610a0f565b005b6102ee60048036038101906102e99190611dd3565b610b90565b005b61030a60048036038101906103059190611f59565b610bf2565b604051610317919061278c565b60405180910390f35b61033a60048036038101906103359190611d48565b610d44565b6040516103479190612771565b60405180910390f35b61036a60048036038101906103659190611d1f565b610dd8565b005b60007f80ac58cd000000000000000000000000000000000000000000000000000000007bffffffffffffffffffffffffffffffffffffffffffffffffffffffff1916827bffffffffffffffffffffffffffffffffffffffffffffffffffffffff1916148061043757507f5b5e139f000000000000000000000000000000000000000000000000000000007bffffffffffffffffffffffffffffffffffffffffffffffffffffffff1916827bffffffffffffffffffffffffffffffffffffffffffffffffffffffff1916145b80610447575061044682610ed0565b5b9050919050565b60606000805461045d90612c4e565b80601f016020809104026020016040519081016040528092919081815260200182805461048990612c4e565b80156104d65780601f106104ab576101008083540402835291602001916104d6565b820191906000526020600020905b8154815290600101906020018083116104b957829003601f168201915b5050505050905090565b60006104eb82610f3a565b61052a576040517f08c379a00000000000000000000000000000000000000000000000000000000081526004016105219061292e565b60405180910390fd5b6004600083815260200190815260200160002060009054906101000a900473ffffffffffffffffffffffffffffffffffffffff169050919050565b600061057082610761565b90508073ffffffffffffffffffffffffffffffffffffffff168373ffffffffffffffffffffffffffffffffffffffff1614156105e1576040517f08c379a00000000000000000000000000000000000000000000000000000000081526004016105d8906129ae565b60405180910390fd5b8073ffffffffffffffffffffffffffffffffffffffff16610600610fa6565b73ffffffffffffffffffffffffffffffffffffffff16148061062f575061062e81610629610fa6565b610d44565b5b61066e576040517f08c379a00000000000000000000000000000000000000000000000000000000081526004016106659061286e565b60405180910390fd5b6106788383610fae565b505050565b61068e610688610fa6565b82611067565b6106cd576040517f08c379a00000000000000000000000000000000000000000000000000000000081526004016106c4906129ce565b60405180910390fd5b6106d8838383611145565b505050565b6106f883838360405180602001604052806000815250610b90565b505050565b600061070960086113a1565b600061071560086113b7565b905061072133826113c5565b61072b8184611593565b610758600960009054906101000a900473ffffffffffffffffffffffffffffffffffffffff166001610a0f565b80915050919050565b6000806002600084815260200190815260200160002060009054906101000a900473ffffffffffffffffffffffffffffffffffffffff169050600073ffffffffffffffffffffffffffffffffffffffff168173ffffffffffffffffffffffffffffffffffffffff16141561080a576040517f08c379a0000000000000000000000000000000000000000000000000000000008152600401610801906128ae565b60405180910390fd5b80915050919050565b60008073ffffffffffffffffffffffffffffffffffffffff168273ffffffffffffffffffffffffffffffffffffffff161415610884576040517f08c379a000000000000000000000000000000000000000000000000000000000815260040161087b9061288e565b60405180910390fd5b600360008373ffffffffffffffffffffffffffffffffffffffff1673ffffffffffffffffffffffffffffffffffffffff168152602001908152602001600020549050919050565b6108d3610fa6565b73ffffffffffffffffffffffffffffffffffffffff166108f1610953565b73ffffffffffffffffffffffffffffffffffffffff1614610947576040517f08c379a000000000000000000000000000000000000000000000000000000000815260040161093e9061294e565b60405180910390fd5b6109516000611607565b565b6000600760009054906101000a900473ffffffffffffffffffffffffffffffffffffffff16905090565b60606001805461098c90612c4e565b80601f01602080910402602001604051908101604052809291908181526020018280546109b890612c4e565b8015610a055780601f106109da57610100808354040283529160200191610a05565b820191906000526020600020905b8154815290600101906020018083116109e857829003601f168201915b5050505050905090565b610a17610fa6565b73ffffffffffffffffffffffffffffffffffffffff168273ffffffffffffffffffffffffffffffffffffffff161415610a85576040517f08c379a0000000000000000000000000000000000000000000000000000000008152600401610a7c9061282e565b60405180910390fd5b8060056000610a92610fa6565b73ffffffffffffffffffffffffffffffffffffffff1673ffffffffffffffffffffffffffffffffffffffff16815260200190815260200160002060008473ffffffffffffffffffffffffffffffffffffffff1673ffffffffffffffffffffffffffffffffffffffff16815260200190815260200160002060006101000a81548160ff0219169083151502179055508173ffffffffffffffffffffffffffffffffffffffff16610b3f610fa6565b73ffffffffffffffffffffffffffffffffffffffff167f17307eab39ab6107e8899845ad3d59bd9653f200f220920489ca2b5937696c3183604051610b849190612771565b60405180910390a35050565b610ba1610b9b610fa6565b83611067565b610be0576040517f08c379a0000000000000000000000000000000000000000000000000000000008152600401610bd7906129ce565b60405180910390fd5b610bec848484846116cd565b50505050565b6060610bfd82610f3a565b610c3c576040517f08c379a0000000000000000000000000000000000000000000000000000000008152600401610c339061290e565b60405180910390fd5b6000600660008481526020019081526020016000208054610c5c90612c4e565b80601f0160208091040260200160405190810160405280929190818152602001828054610c8890612c4e565b8015610cd55780601f10610caa57610100808354040283529160200191610cd5565b820191906000526020600020905b815481529060010190602001808311610cb857829003601f168201915b505050505090506000610ce6611729565b9050600081511415610cfc578192505050610d3f565b600082511115610d31578082604051602001610d199291906126e6565b60405160208183030381529060405292505050610d3f565b610d3a84611740565b925050505b919050565b6000600560008473ffffffffffffffffffffffffffffffffffffffff1673ffffffffffffffffffffffffffffffffffffffff16815260200190815260200160002060008373ffffffffffffffffffffffffffffffffffffffff1673ffffffffffffffffffffffffffffffffffffffff16815260200190815260200160002060009054906101000a900460ff16905092915050565b610de0610fa6565b73ffffffffffffffffffffffffffffffffffffffff16610dfe610953565b73ffffffffffffffffffffffffffffffffffffffff1614610e54576040517f08c379a0000000000000000000000000000000000000000000000000000000008152600401610e4b9061294e565b60405180910390fd5b600073ffffffffffffffffffffffffffffffffffffffff168173ffffffffffffffffffffffffffffffffffffffff161415610ec4576040517f08c379a0000000000000000000000000000000000000000000000000000000008152600401610ebb906127ce565b60405180910390fd5b610ecd81611607565b50565b60007f01ffc9a7000000000000000000000000000000000000000000000000000000007bffffffffffffffffffffffffffffffffffffffffffffffffffffffff1916827bffffffffffffffffffffffffffffffffffffffffffffffffffffffff1916149050919050565b60008073ffffffffffffffffffffffffffffffffffffffff166002600084815260200190815260200160002060009054906101000a900473ffffffffffffffffffffffffffffffffffffffff1673ffffffffffffffffffffffffffffffffffffffff1614159050919050565b600033905090565b816004600083815260200190815260200160002060006101000a81548173ffffffffffffffffffffffffffffffffffffffff021916908373ffffffffffffffffffffffffffffffffffffffff160217905550808273ffffffffffffffffffffffffffffffffffffffff1661102183610761565b73ffffffffffffffffffffffffffffffffffffffff167f8c5be1e5ebec7d5bd14f71427d1e84f3dd0314c0f7b2291e5b200ac8c7c3b92560405160405180910390a45050565b600061107282610f3a565b6110b1576040517f08c379a00000000000000000000000000000000000000000000000000000000081526004016110a89061284e565b60405180910390fd5b60006110bc83610761565b90508073ffffffffffffffffffffffffffffffffffffffff168473ffffffffffffffffffffffffffffffffffffffff16148061112b57508373ffffffffffffffffffffffffffffffffffffffff16611113846104e0565b73ffffffffffffffffffffffffffffffffffffffff16145b8061113c575061113b8185610d44565b5b91505092915050565b8273ffffffffffffffffffffffffffffffffffffffff1661116582610761565b73ffffffffffffffffffffffffffffffffffffffff16146111bb576040517f08c379a00000000000000000000000000000000000000000000000000000000081526004016111b29061296e565b60405180910390fd5b600073ffffffffffffffffffffffffffffffffffffffff168273ffffffffffffffffffffffffffffffffffffffff16141561122b576040517f08c379a00000000000000000000000000000000000000000000000000000000081526004016112229061280e565b60405180910390fd5b6112368383836117e7565b611241600082610fae565b6001600360008573ffffffffffffffffffffffffffffffffffffffff1673ffffffffffffffffffffffffffffffffffffffff16815260200190815260200160002060008282546112919190612b64565b925050819055506001600360008473ffffffffffffffffffffffffffffffffffffffff1673ffffffffffffffffffffffffffffffffffffffff16815260200190815260200160002060008282546112e89190612add565b92505081905550816002600083815260200190815260200160002060006101000a81548173ffffffffffffffffffffffffffffffffffffffff021916908373ffffffffffffffffffffffffffffffffffffffff160217905550808273ffffffffffffffffffffffffffffffffffffffff168473ffffffffffffffffffffffffffffffffffffffff167fddf252ad1be2c89b69c2b068fc378daa952ba7f163c4a11628f55a4df523b3ef60405160405180910390a4505050565b6001816000016000828254019250508190555050565b600081600001549050919050565b600073ffffffffffffffffffffffffffffffffffffffff168273ffffffffffffffffffffffffffffffffffffffff161415611435576040517f08c379a000000000000000000000000000000000000000000000000000000000815260040161142c906128ee565b60405180910390fd5b61143e81610f3a565b1561147e576040517f08c379a0000000000000000000000000000000000000000000000000000000008152600401611475906127ee565b60405180910390fd5b61148a600083836117e7565b6001600360008473ffffffffffffffffffffffffffffffffffffffff1673ffffffffffffffffffffffffffffffffffffffff16815260200190815260200160002060008282546114da9190612add565b92505081905550816002600083815260200190815260200160002060006101000a81548173ffffffffffffffffffffffffffffffffffffffff021916908373ffffffffffffffffffffffffffffffffffffffff160217905550808273ffffffffffffffffffffffffffffffffffffffff16600073ffffffffffffffffffffffffffffffffffffffff167fddf252ad1be2c89b69c2b068fc378daa952ba7f163c4a11628f55a4df523b3ef60405160405180910390a45050565b61159c82610f3a565b6115db576040517f08c379a00000000000000000000000000000000000000000000000000000000081526004016115d2906128ce565b60405180910390fd5b80600660008481526020019081526020016000209080519060200190611602929190611b43565b505050565b6000600760009054906101000a900473ffffffffffffffffffffffffffffffffffffffff16905081600760006101000a81548173ffffffffffffffffffffffffffffffffffffffff021916908373ffffffffffffffffffffffffffffffffffffffff1602179055508173ffffffffffffffffffffffffffffffffffffffff168173ffffffffffffffffffffffffffffffffffffffff167f8be0079c531659141344cd1fd0a4f28419497f9722a3daafe3b4186f6b6457e060405160405180910390a35050565b6116d8848484611145565b6116e4848484846117ec565b611723576040517f08c379a000000000000000000000000000000000000000000000000000000000815260040161171a906127ae565b60405180910390fd5b50505050565b606060405180602001604052806000815250905090565b606061174b82610f3a565b61178a576040517f08c379a00000000000000000000000000000000000000000000000000000000081526004016117819061298e565b60405180910390fd5b6000611794611729565b905060008151116117b457604051806020016040528060008152506117df565b806117be84611983565b6040516020016117cf9291906126e6565b6040516020818303038152906040525b915050919050565b505050565b600061180d8473ffffffffffffffffffffffffffffffffffffffff16611b30565b15611976578373ffffffffffffffffffffffffffffffffffffffff1663150b7a02611836610fa6565b8786866040518563ffffffff1660e01b81526004016118589493929190612725565b602060405180830381600087803b15801561187257600080fd5b505af19250505080156118a357506040513d601f19601f820116820180604052508101906118a09190611eef565b60015b611926573d80600081146118d3576040519150601f19603f3d011682016040523d82523d6000602084013e6118d8565b606091505b5060008151141561191e576040517f08c379a0000000000000000000000000000000000000000000000000000000008152600401611915906127ae565b60405180910390fd5b805181602001fd5b63150b7a0260e01b7bffffffffffffffffffffffffffffffffffffffffffffffffffffffff1916817bffffffffffffffffffffffffffffffffffffffffffffffffffffffff19161491505061197b565b600190505b949350505050565b606060008214156119cb576040518060400160405280600181526020017f30000000000000000000000000000000000000000000000000000000000000008152509050611b2b565b600082905060005b600082146119fd5780806119e690612c80565b915050600a826119f69190612b33565b91506119d3565b60008167ffffffffffffffff811115611a3f577f4e487b7100000000000000000000000000000000000000000000000000000000600052604160045260246000fd5b6040519080825280601f01601f191660200182016040528015611a715781602001600182028036833780820191505090505b5090505b60008514611b2457600182611a8a9190612b64565b9150600a85611a999190612cc9565b6030611aa59190612add565b60f81b818381518110611ae1577f4e487b7100000000000000000000000000000000000000000000000000000000600052603260045260246000fd5b60200101907effffffffffffffffffffffffffffffffffffffffffffffffffffffffffffff1916908160001a905350600a85611b1d9190612b33565b9450611a75565b8093505050505b919050565b600080823b905060008111915050919050565b828054611b4f90612c4e565b90600052602060002090601f016020900481019282611b715760008555611bb8565b82601f10611b8a57805160ff1916838001178555611bb8565b82800160010185558215611bb8579182015b82811115611bb7578251825591602001919060010190611b9c565b5b509050611bc59190611bc9565b5090565b5b80821115611be2576000816000905550600101611bca565b5090565b6000611bf9611bf484612a3a565b612a09565b905082815260208101848484011115611c1157600080fd5b611c1c848285612c0c565b509392505050565b6000611c37611c3284612a6a565b612a09565b905082815260208101848484011115611c4f57600080fd5b611c5a848285612c0c565b509392505050565b600081359050611c7181612dc7565b92915050565b600081359050611c8681612dde565b92915050565b600081359050611c9b81612df5565b92915050565b600081519050611cb081612df5565b92915050565b600082601f830112611cc757600080fd5b8135611cd7848260208601611be6565b91505092915050565b600082601f830112611cf157600080fd5b8135611d01848260208601611c24565b91505092915050565b600081359050611d1981612e0c565b92915050565b600060208284031215611d3157600080fd5b6000611d3f84828501611c62565b91505092915050565b60008060408385031215611d5b57600080fd5b6000611d6985828601611c62565b9250506020611d7a85828601611c62565b9150509250929050565b600080600060608486031215611d9957600080fd5b6000611da786828701611c62565b9350506020611db886828701611c62565b9250506040611dc986828701611d0a565b9150509250925092565b60008060008060808587031215611de957600080fd5b6000611df787828801611c62565b9450506020611e0887828801611c62565b9350506040611e1987828801611d0a565b925050606085013567ffffffffffffffff811115611e3657600080fd5b611e4287828801611cb6565b91505092959194509250565b60008060408385031215611e6157600080fd5b6000611e6f85828601611c62565b9250506020611e8085828601611c77565b9150509250929050565b60008060408385031215611e9d57600080fd5b6000611eab85828601611c62565b9250506020611ebc85828601611d0a565b9150509250929050565b600060208284031215611ed857600080fd5b6000611ee684828501611c8c565b91505092915050565b600060208284031215611f0157600080fd5b6000611f0f84828501611ca1565b91505092915050565b600060208284031215611f2a57600080fd5b600082013567ffffffffffffffff811115611f4457600080fd5b611f5084828501611ce0565b91505092915050565b600060208284031215611f6b57600080fd5b6000611f7984828501611d0a565b91505092915050565b611f8b81612b98565b82525050565b611f9a81612baa565b82525050565b6000611fab82612a9a565b611fb58185612ab0565b9350611fc5818560208601612c1b565b611fce81612db6565b840191505092915050565b6000611fe482612aa5565b611fee8185612ac1565b9350611ffe818560208601612c1b565b61200781612db6565b840191505092915050565b600061201d82612aa5565b6120278185612ad2565b9350612037818560208601612c1b565b80840191505092915050565b6000612050603283612ac1565b91507f4552433732313a207472616e7366657220746f206e6f6e20455243373231526560008301527f63656976657220696d706c656d656e74657200000000000000000000000000006020830152604082019050919050565b60006120b6602683612ac1565b91507f4f776e61626c653a206e6577206f776e657220697320746865207a65726f206160008301527f64647265737300000000000000000000000000000000000000000000000000006020830152604082019050919050565b600061211c601c83612ac1565b91507f4552433732313a20746f6b656e20616c7265616479206d696e746564000000006000830152602082019050919050565b600061215c602483612ac1565b91507f4552433732313a207472616e7366657220746f20746865207a65726f2061646460008301527f72657373000000000000000000000000000000000000000000000000000000006020830152604082019050919050565b60006121c2601983612ac1565b91507f4552433732313a20617070726f766520746f2063616c6c6572000000000000006000830152602082019050919050565b6000612202602c83612ac1565b91507f4552433732313a206f70657261746f7220717565727920666f72206e6f6e657860008301527f697374656e7420746f6b656e00000000000000000000000000000000000000006020830152604082019050919050565b6000612268603883612ac1565b91507f4552433732313a20617070726f76652063616c6c6572206973206e6f74206f7760008301527f6e6572206e6f7220617070726f76656420666f7220616c6c00000000000000006020830152604082019050919050565b60006122ce602a83612ac1565b91507f4552433732313a2062616c616e636520717565727920666f7220746865207a6560008301527f726f2061646472657373000000000000000000000000000000000000000000006020830152604082019050919050565b6000612334602983612ac1565b91507f4552433732313a206f776e657220717565727920666f72206e6f6e657869737460008301527f656e7420746f6b656e00000000000000000000000000000000000000000000006020830152604082019050919050565b600061239a602e83612ac1565b91507f45524337323155524953746f726167653a2055524920736574206f66206e6f6e60008301527f6578697374656e7420746f6b656e0000000000000000000000000000000000006020830152604082019050919050565b6000612400602083612ac1565b91507f4552433732313a206d696e7420746f20746865207a65726f20616464726573736000830152602082019050919050565b6000612440603183612ac1565b91507f45524337323155524953746f726167653a2055524920717565727920666f722060008301527f6e6f6e6578697374656e7420746f6b656e0000000000000000000000000000006020830152604082019050919050565b60006124a6602c83612ac1565b91507f4552433732313a20617070726f76656420717565727920666f72206e6f6e657860008301527f697374656e7420746f6b656e00000000000000000000000000000000000000006020830152604082019050919050565b600061250c602083612ac1565b91507f4f776e61626c653a2063616c6c6572206973206e6f7420746865206f776e65726000830152602082019050919050565b600061254c602983612ac1565b91507f4552433732313a207472616e73666572206f6620746f6b656e2074686174206960008301527f73206e6f74206f776e00000000000000000000000000000000000000000000006020830152604082019050919050565b60006125b2602f83612ac1565b91507f4552433732314d657461646174613a2055524920717565727920666f72206e6f60008301527f6e6578697374656e7420746f6b656e00000000000000000000000000000000006020830152604082019050919050565b6000612618602183612ac1565b91507f4552433732313a20617070726f76616c20746f2063757272656e74206f776e6560008301527f72000000000000000000000000000000000000000000000000000000000000006020830152604082019050919050565b600061267e603183612ac1565b91507f4552433732313a207472616e736665722063616c6c6572206973206e6f74206f60008301527f776e6572206e6f7220617070726f7665640000000000000000000000000000006020830152604082019050919050565b6126e081612c02565b82525050565b60006126f28285612012565b91506126fe8284612012565b91508190509392505050565b600060208201905061271f6000830184611f82565b92915050565b600060808201905061273a6000830187611f82565b6127476020830186611f82565b61275460408301856126d7565b81810360608301526127668184611fa0565b905095945050505050565b60006020820190506127866000830184611f91565b92915050565b600060208201905081810360008301526127a68184611fd9565b905092915050565b600060208201905081810360008301526127c781612043565b9050919050565b600060208201905081810360008301526127e7816120a9565b9050919050565b600060208201905081810360008301526128078161210f565b9050919050565b600060208201905081810360008301526128278161214f565b9050919050565b60006020820190508181036000830152612847816121b5565b9050919050565b60006020820190508181036000830152612867816121f5565b9050919050565b600060208201905081810360008301526128878161225b565b9050919050565b600060208201905081810360008301526128a7816122c1565b9050919050565b600060208201905081810360008301526128c781612327565b9050919050565b600060208201905081810360008301526128e78161238d565b9050919050565b60006020820190508181036000830152612907816123f3565b9050919050565b6000602082019050818103600083015261292781612433565b9050919050565b6000602082019050818103600083015261294781612499565b9050919050565b60006020820190508181036000830152612967816124ff565b9050919050565b600060208201905081810360008301526129878161253f565b9050919050565b600060208201905081810360008301526129a7816125a5565b9050919050565b600060208201905081810360008301526129c78161260b565b9050919050565b600060208201905081810360008301526129e781612671565b9050919050565b6000602082019050612a0360008301846126d7565b92915050565b6000604051905081810181811067ffffffffffffffff82111715612a3057612a2f612d87565b5b8060405250919050565b600067ffffffffffffffff821115612a5557612a54612d87565b5b601f19601f8301169050602081019050919050565b600067ffffffffffffffff821115612a8557612a84612d87565b5b601f19601f8301169050602081019050919050565b600081519050919050565b600081519050919050565b600082825260208201905092915050565b600082825260208201905092915050565b600081905092915050565b6000612ae882612c02565b9150612af383612c02565b9250827fffffffffffffffffffffffffffffffffffffffffffffffffffffffffffffffff03821115612b2857612b27612cfa565b5b828201905092915050565b6000612b3e82612c02565b9150612b4983612c02565b925082612b5957612b58612d29565b5b828204905092915050565b6000612b6f82612c02565b9150612b7a83612c02565b925082821015612b8d57612b8c612cfa565b5b828203905092915050565b6000612ba382612be2565b9050919050565b60008115159050919050565b60007fffffffff0000000000000000000000000000000000000000000000000000000082169050919050565b600073ffffffffffffffffffffffffffffffffffffffff82169050919050565b6000819050919050565b82818337600083830152505050565b60005b83811015612c39578082015181840152602081019050612c1e565b83811115612c48576000848401525b50505050565b60006002820490506001821680612c6657607f821691505b60208210811415612c7a57612c79612d58565b5b50919050565b6000612c8b82612c02565b91507fffffffffffffffffffffffffffffffffffffffffffffffffffffffffffffffff821415612cbe57612cbd612cfa565b5b600182019050919050565b6000612cd482612c02565b9150612cdf83612c02565b925082612cef57612cee612d29565b5b828206905092915050565b7f4e487b7100000000000000000000000000000000000000000000000000000000600052601160045260246000fd5b7f4e487b7100000000000000000000000000000000000000000000000000000000600052601260045260246000fd5b7f4e487b7100000000000000000000000000000000000000000000000000000000600052602260045260246000fd5b7f4e487b7100000000000000000000000000000000000000000000000000000000600052604160045260246000fd5b6000601f19601f8301169050919050565b612dd081612b98565b8114612ddb57600080fd5b50565b612de781612baa565b8114612df257600080fd5b50565b612dfe81612bb6565b8114612e0957600080fd5b50565b612e1581612c02565b8114612e2057600080fd5b5056fea2646970667358221220249138612bc80eadbbdf59cc0d27980cc78c15d5fa152711ab06a9c878dc6a6c64736f6c63430008000033",
  "linkReferences": {},
  "deployedLinkReferences": {}
}